:100000000C9462000C948A000C948A000C948A0070
:100010000C948A000C948A000C948A000C948A0038
:100020000C948A000C948A000C948A000C948A0028
:100030000C948A000C948A000C948A000C948A0018
:100040000C94A9040C948A000C9492030C946C03F5
:100050000C948A000C948A000C948A000C948A00F8
:100060000C94F3040C948A00000000002400270084
:100070002A0000000000250028002B0000000000DE
:1000800023002600290004040404040404040202DA
:100090000202020203030303030301020408102007
:1000A0004080010204081020010204081020000012
:1000B0000008000201000003040700000000000027
:1000C0000000550E11241FBECFEFD8E0DEBFCDBF1C
:1000D00023E0AEEFB1E001C01D92A639B207E1F70F
:1000E00011E0A0E0B1E0EEE3F0E202C005900D9275
:1000F000AE3FB107D9F710E0C2E6D0E004C02197C7
:10010000FE010E94E50EC136D107C9F70E94AC0975
:100110000C941D100C940000CF92DF92EF92FF928E
:100120000F931F93CF93DF936C017A018B01C0E093
:10013000D0E0CE15DF0589F0D8016D918D01D60193
:10014000ED91FC910190F081E02DC6010995892B7C
:1001500011F47E0102C02196ECCFC701DF91CF914F
:100160001F910F91FF90EF90DF90CF9008951F9314
:10017000CF93DF93EC011092AA021092A902109281
:10018000CC021092CB021092A80211E01093A702A9
:100190001092A20261E082E10E94ED0361E083E13E
:1001A0000E94ED038091B9008E7F8093B900809109
:1001B000B9008D7F8093B90088E48093B80085E40E
:1001C0008093BC001B8388811093CE028093CD0264
:1001D0001092CC021092CB0261E089819A810E9438
:1001E000210691E0811190E0892FDF91CF911F913D
:1001F00008950E9418104F925F926F927F92EF9233
:10020000FF920F931F93CF93DF93CDB7DEB7A197E4
:100210000FB6F894DEBF0FBECDBF7C01FA01CB0153
:1002200019A2223008F42AE08E010F5D1F4F422EE2
:10023000512C612C712CBF01A30192010E94C30EAD
:10024000F901CA01015011096A3014F4605D01C05E
:10025000695CD8016C93232B242B252B61F7B80103
:10026000C7010E945703A1960FB6F894DEBF0FBED8
:10027000CDBFDF91CF911F910F91FF90EF907F90B5
:100280006F905F904F900895CF92DF92EF92FF9220
:100290000F931F93CF93DF93EC016A017B01E881F9
:1002A000F9810190F081E02D6DE209958C014427E0
:1002B0005527BA014C195D096E097F092AE0CE0164
:1002C0000E94FB00800F911FDF91CF911F910F9132
:1002D000FF90EF90DF90CF900895FC01538D448DF7
:1002E000252F30E0842F90E0821B930B541710F0E1
:1002F000CF96089501970895FC01918D828D9817EE
:1003000061F0828DDF01A80FB11D5D968C91928DF9
:100310009F5F9F73928F90E008958FEF9FEF0895F6
:10032000FC01918D828D981731F0828DE80FF11DBF
:10033000858D90E008958FEF9FEF0895FC01918DDA
:10034000228D892F90E0805C9F4F821B91098F73D3
:100350009927089581ED92E00E949E0121E0892B6A
:1003600009F420E0822F0895FC01848DDF01A80F9D
:10037000B11DA35ABF4F2C91848D90E001968F73CD
:100380009927848FA689B7892C93A089B1898C91EC
:1003900080648C93938D848D981306C00288F389B2
:1003A000E02D80818F7D80830895EF92FF920F93DF
:1003B0001F93CF93DF93EC0181E0888F9B8D8C8D11
:1003C000981305C0E889F989808185FD24C0F62E3F
:1003D0000B8D10E00F5F1F4F0F731127E02E8C8DD8
:1003E000E8120CC00FB607FCFACFE889F9898081C2
:1003F00085FFF5CFCE010E94B401F1CF8B8DFE01B8
:10040000E80FF11DE35AFF4FF0820B8FEA89FB8959
:100410008081806207C0EE89FF896083E889F9895D
:1004200080818064808381E090E0DF91CF911F9193
:100430000F91FF90EF900895CF93DF93EC01888D9B
:100440008823C9F0EA89FB89808185FD05C0A889D8
:10045000B9898C9186FD0FC00FB607FCF5CF80815E
:1004600085FFF2CFA889B9898C9185FFEDCFCE01A8
:100470000E94B401E7CFDF91CF91089580E090E032
:10048000892B29F00E94AA0181110C940000089583
:10049000833081F028F4813099F08230A1F0089502
:1004A0008730A9F08830B9F08430D1F48091800091
:1004B0008F7D03C0809180008F77809380000895A6
:1004C00084B58F7702C084B58F7D84BD08958091F7
:1004D000B0008F7703C08091B0008F7D8093B00013
:1004E00008953FB7F89480917E0290917F02A09189
:1004F0008002B091810226B5A89B05C02F3F19F05C
:100500000196A11DB11D3FBFBA2FA92F982F882793
:10051000820F911DA11DB11DBC01CD0142E0660FEE
:10052000771F881F991F4A95D1F7089585ED80930D
:10053000BC008091BC0084FDFCCF1092A8020895FD
:1005400040915402262F30E0240F311D2132310515
:10055000DCF42091A8022430C9F4FC0180E090E092
:10056000861758F4309154022191DC01AE5CBD4FE6
:10057000A30FB11D2C930196F3CF80915402680F05
:100580006093540280E0089581E0089582E0089528
:100590000895E091AA028091A902E81730F4F0E0F2
:1005A000E555FD4F808190E008958FEF9FEF08950E
:1005B0009091AA028091A902981750F4E92FF0E0D7
:1005C000E555FD4F208130E09F5F9093AA0202C065
:1005D0002FEF3FEFC90108958091A90290E020918B
:1005E000AA02821B91090895CF92DF92EF92FF92A7
:1005F0000F931F93CF93DF937C01262F972F8A01B0
:100600008091CE02882391F0C62FD72F6E01C40EA1
:10061000D51ECC15DD0571F06991D701ED91FC91E6
:100620000190F081E02DC7010995F3CF642F822F4F
:100630000E94A002C801DF91CF911F910F91FF90FE
:10064000EF90DF90CF900895CF93DF931F92CDB7B7
:10065000DEB769832091CE022223D1F02091CB0214
:10066000203240F021E030E0FC013383228380E03F
:1006700090E015C08091CC02E82FF0E0EE5EFD4FD7
:10068000998190838F5F8093CC028093CB0205C0C9
:1006900061E0CE0101960E94A00281E090E00F90FF
:1006A000DF91CF910895089580E090E0089561155D
:1006B000710579F0FB0101900020E9F73197AF0156
:1006C000461B570BDC01ED91FC910280F381E02D7C
:1006D000099480E090E008951F920F920FB60F9258
:1006E00011242F933F934F935F936F937F938F9337
:1006F0009F93AF93BF93EF93FF9381ED92E00E949E
:10070000B401FF91EF91BF91AF919F918F917F9134
:100710006F915F914F913F912F910F900FBE0F906E
:100720001F9018951F920F920FB60F9211242F93BE
:100730008F939F93EF93FF93E091E102F091E20298
:100740008081E091E702F091E80282FD12C0908181
:100750008091EA028F5F8F732091EB02821751F034
:10076000E091EA02F0E0EF52FD4F958F8093EA02AC
:1007700001C08081FF91EF919F918F912F910F90F8
:100780000FBE0F901F901895CF93DF93282F30E066
:10079000F901E255FF4F8491F901E656FF4FD491DC
:1007A000F901EA57FF4FC491CC2391F081110E94C7
:1007B0004802EC2FF0E0EE0FFF1FE458FF4FA59129
:1007C000B491EC91ED2381E090E021F480E002C04F
:1007D00080E090E0DF91CF9108951F93CF93DF9356
:1007E000282F30E0F901E255FF4F8491F901E656D8
:1007F000FF4FD491F901EA57FF4FC491CC23C9F0C0
:10080000162F81110E944802EC2FF0E0EE0FFF1F1F
:10081000EE58FF4FA591B4918FB7F894111105C010
:100820009C91ED2FE095E92302C0EC91ED2BEC9328
:100830008FBFDF91CF911F910895CF93DF93EC018C
:1008400060E08E810E94ED0361E08E810E94ED03E5
:1008500060E08E810E94ED038BE891E00197F1F753
:10086000DF91CF910895CF93DF9390E0FC01E6569E
:10087000FF4F2491FC01EA57FF4F8491882361F1D7
:1008800090E0880F991FFC01E859FF4FC591D49162
:10089000FC01EE58FF4FA591B491611109C09FB7BB
:1008A000F8948881209582238883EC912E230BC0B5
:1008B000623061F49FB7F8943881822F809583234A
:1008C0008883EC912E2B2C939FBF06C08FB7F89492
:1008D000E8812E2B28838FBFDF91CF9108958F92CF
:1008E0009F92AF92BF92CF92DF92EF92FF926B01F5
:1008F0007C010E9471024B015C01C114D104E1042E
:10090000F104F1F00E947102DC01CB018819990910
:10091000AA09BB09883E9340A105B10570F321E007
:10092000C21AD108E108F10888EE880E83E0981E0B
:10093000A11CB11CC114D104E104F10419F7DDCFED
:10094000FF90EF90DF90CF90BF90AF909F908F90EF
:1009500008951F920F920FB60F9211242F933F9379
:100960008F939F93AF93BF9380917A0290917B0274
:10097000A0917C02B0917D023091790223E0230F97
:100980002D3720F40196A11DB11D05C026E8230FC7
:100990000296A11DB11D2093790280937A02909353
:1009A0007B02A0937C02B0937D0280917E029091A5
:1009B0007F02A0918002B09181020196A11DB11D1C
:1009C00080937E0290937F02A0938002B093810275
:1009D000BF91AF919F918F913F912F910F900FBE3B
:1009E0000F901F9018951F920F920FB60F9211241F
:1009F0002F933F934F935F936F937F938F939F9327
:100A0000AF93BF93EF93FF938091B900887F8036B7
:100A100009F49CC068F5883209F45BC090F4803119
:100A200009F454C038F4882309F4F6C0883009F476
:100A30004DC0F6C0883109F44CC0803209F45DC065
:100A4000EFC0803409F468C048F4803309F455C01D
:100A5000883309F0E5C08093A602D8C0803509F438
:100A60004FC0883509F45DC0883409F0D9C0D6C0BC
:100A7000883909F4C7C0A8F4883709F467C038F486
:100A8000883609F463C0803709F460C0C9C088386B
:100A900009F4B8C0803909F45FC0803809F0C0C0DB
:100AA0005BC0803B09F486C038F4803A09F466C024
:100AB000883A09F47FC0B4C0803C09F4A7C0883CE0
:100AC00009F4A4C0883B09F48AC0AAC08091A3029B
:100AD00010C09091A5028091A402981770F5E09142
:100AE000A50281E08E0F8093A502F0E0EE57FD4F46
:100AF00080818093BB0085EC86C08093A6028EC067
:100B0000E091A50281E08E0F8093A5028091BB0049
:100B1000F0E0EE57FD4F80839091A5028091A402F2
:100B20006EC0E091A50281E08E0F8093A5028091B6
:100B3000BB00F0E0EE57FD4F80838091A70281114A
:100B40006DC081E08093A20284EA61C083E080935B
:100B5000A80210927802CFCF80917802803208F0FC
:100B600051C0E091780281E08E0F809378028091ED
:100B7000BB00F0E0E85AFD4F8083BDCF85EC809349
:100B8000BC001092A80280917802803230F4E0918B
:100B90007802F0E0E85AFD4F10826091780270E030
:100BA000E0915602F091570288E592E00995109283
:100BB000780236C084E08093A80210925502109209
:100BC0005402E0915202F09153020995809154022F
:100BD000811105C081E08093540210923202E091AD
:100BE000550281E08E0F80935502F0E0EE5CFD4FE0
:100BF00080818093BB009091550280915402981798
:100C000008F479CF85E88093BC000AC085EC809316
:100C1000BC001092A80204C01092A6020E94960284
:100C2000FF91EF91BF91AF919F918F917F916F91C4
:100C30005F914F913F912F910F900FBE0F901F909A
:100C400018952091CB029091CD02213208F049C035
:100C50008091A8028111FCCF32E03093A80260930A
:100C6000A7023FEF3093A6021092A5022093A402A0
:100C7000A2E1B2E042E852E0FA013E2F341B321703
:100C800018F43D913193F9CF1092A3022091A30261
:100C9000990F922B9093A3029091A202913061F44C
:100CA0001092A2029091A3029093BB009091BC007D
:100CB00093FDF8CF95EC01C095EE9093BC00909118
:100CC000A8029230E1F39091A6029F3F79F08091C3
:100CD000A602803241F08091A602803331F084E098
:100CE00005C081E003C082E001C083E01092CC0225
:100CF0001092CB021092CE020895CF92DF92EF9223
:100D0000FF920F931F93CF93DF937C016C0187E0D9
:100D1000C80ED11CC0E0D0E0062F10E0B8010C2EA8
:100D200002C0759567950A94E2F76170F6018191AA
:100D30006F010E94ED032196C430D10579F7C701F8
:100D4000DF91CF911F910F91FF90EF90DF90CF90A7
:100D50000C941D04CF92DF92EF92FF920F931F939A
:100D6000CF93DF93EC01F62E642F8C810E94ED036C
:100D70008D818F3F19F060E00E94ED038F850F2D6C
:100D800010E084FF25C06E0187E0C80ED11CE12C65
:100D9000F12CB8010E2C02C0759567950A94E2F704
:100DA0006170F60181916F010E94ED03FFEFEF1A70
:100DB000FF0A88E0E816F10461F7CE01DF91CF91D8
:100DC0001F910F91FF90EF90DF90CF900C941D0436
:100DD000B80184E0759567958A95E1F7CE010E9488
:100DE0007D066F2DCE01DF91CF911F910F91FF9066
:100DF000EF90DF90CF900C947D0641E00E94AA0610
:100E000081E090E0089540E00C94AA0661E00E9421
:100E100003078BE39FE10197F1F708950F931F9369
:100E2000CF93DF931F92CDB7DEB78C0169830E9409
:100E3000AD0E6981681741F0C8010F90DF91CF9125
:100E40001F910F910C94B50E0F90DF91CF911F91D0
:100E50000F9108958FE891E00E94590985EA91E089
:100E60000E94590984EB91E00E94590988EC91E0B5
:100E70000C9459098AE793E00E94060760E080E03D
:100E80000E94920987ED91E00E94A70961E080E04D
:100E90000E94920985EA91E00E94A70962E080E041
:100EA0000E9492098BEE91E00E94A70963E080E026
:100EB0000E94920988EC91E00C94A709EF92FF92AE
:100EC0000F931F93CF93DF93EC01423018F08F857F
:100ED00088608F874B8B1C8A80E48D8B6E8B70E0D3
:100EE000605C7F4F6F8B61E08C810E9433048D8149
:100EF0008F3F19F061E00E94330461E08E810E940F
:100F000033047E0187E0E80EF11C00E010E08F85DD
:100F100084FD03C084E090E002C088E090E0081700
:100F200019074CF461E0F70181917F010E943304BD
:100F30000F5F1F4FECCF8BE39DE00197F1F760E06F
:100F40008C810E94ED0360E08E810E94ED038D8113
:100F50008F3F19F060E00E94ED036F8564FD1DC0B6
:100F600063E0CE010E947D060BE416E4C801019700
:100F7000F1F763E0CE010E947D06C8010197F1F709
:100F800063E0CE010E947D0683E592E00197F1F7D0
:100F900062E0CE010E947D0616C06062CE010E9412
:100FA00003078BE496E40197F1F76F856062CE0149
:100FB0000E94030783E592E00197F1F76F85606275
:100FC000CE010E9403076F856062CE010E94030775
:100FD00084E0888B6CE0CE010E940307CE010E9462
:100FE000060782E0898B66E0CE01DF91CF911F91E9
:100FF0000F91FF90EF900C9403072F923F924F9226
:101000005F926F927F928F929F92AF92BF92CF9298
:10101000DF92EF92FF920F931F93CF93DF93CDB7A1
:10102000DEB72B970FB6F894DEBF0FBECDBF7C01A5
:101030001982C090CF02D090D002D60114968D9123
:101040009C911597892B09F4BFC08C9191E09093E6
:10105000CE028093CD021092CC021092CB02119658
:101060008D919C911297DC01ED91FC910280F381AE
:10107000E02D41E050E0BE016F5F7F4F0995019781
:1010800009F0A2C060E0F601818192810E942106F0
:1010900081119AC0A12CB12C97E0492E512C21E04E
:1010A0005FEF45EE35EC6BEA262E62E0362ED60178
:1010B0001496ED91FC9115971C918091A8028111D5
:1010C000FCCFC2018A199B09E817F90708F4CF0180
:1010D000082F813208F000E22093A802E1E0B2017B
:1010E000681B790BA616B70608F4E0E0E093A702A8
:1010F0005093A6021092A5026FEF600F6093A402B6
:101100002093A3027091A302612F660F672B609357
:10111000A3026091A202613069F41092A202609170
:10112000A3026093BB006091BC0063FDF8CF3093D5
:10113000BC0002C04093BC006091A8026130E1F3A2
:101140006091A502601710F40091A502A2E8B2E038
:10115000EBEAF2E06E2F6219601718F46D9161935B
:10116000F9CF1092AA020093A90210E008171907FC
:1011700059F588248394912C8C0E9D1E8A0C9B1CFF
:101180003401C4018619970980179107B0F4F6015C
:1011900081819281DC01ED91FC910284F385E02D47
:1011A00028873B874A8759870995F40181934F0126
:1011B00059854A853B852885E4CFA00EB11EB7E04E
:1011C000AB16B10408F473CF89818F773A814B81D4
:1011D0005D812E812F776F81762F72957F709AEFC8
:1011E000799F600D1124D7016C93622F62956F7007
:1011F000699F200D112411962C931197252F22956C
:101200002F70299F500D112412965C931297242F52
:1012100022952F70299F400D112413964C931397FC
:10122000232F22952F70299F300D112414963C9363
:101230001497282F22952F70299F800D1124159621
:101240008C93C7012B960FB6F894DEBF0FBECDBFAF
:10125000DF91CF911F910F91FF90EF90DF90CF9092
:10126000BF90AF909F908F907F906F905F904F90C6
:101270003F902F900895CF93DF93AC01990F660BA9
:10128000770B77FF05C081ED92E00E94440105C015
:101290002AE081ED92E00E94FB00EC0166E771E03C
:1012A00081ED92E00E9457038C0F9D1FDF91CF913B
:1012B0000895CF93DF93BC0181ED92E00E94570324
:1012C000EC0166E771E081ED92E00E9457038C0F1C
:1012D0009D1FDF91CF910895CF93DF93482F50E06A
:1012E00060E070E02AE081ED92E00E94FB00EC01FA
:1012F00066E771E081ED92E00E9457038C0F9D1F1D
:10130000DF91CF910895AC01990F660B770B77FFB2
:1013100004C08AE793E00C9444012AE08AE793E052
:101320000C94FB00643008F063E090918D03691722
:1013300010F06FEF690FE62FF0E0E658FC4F94894C
:10134000682F690F60688AE793E00C940307BC017B
:101350008AE793E00C945703CF93DF9300D000D03B
:1013600000D0CDB7DEB7789484B5826084BD84B5F3
:10137000816084BD85B5826085BD85B5816085BD90
:1013800080916E00816080936E0010928100809148
:1013900081008260809381008091810081608093D0
:1013A0008100809180008160809380008091B100F5
:1013B00084608093B1008091B00081608093B00020
:1013C00080917A00846080937A0080917A008260B4
:1013D00080937A0080917A00816080937A00809176
:1013E0007A00806880937A001092C10062E087E002
:1013F0000E94330462E088E00E94330461E08AE0E6
:101400000E943304E091E102F091E20282E08083E5
:10141000E091DD02F091DE021082E091DF02F091B6
:10142000E0028FEC80831092E902E091E502F091F6
:10143000E60286E08083E091E302F091E40280819D
:1014400080618083E091E302F091E4028081886012
:101450008083E091E302F091E402808180688083E0
:10146000E091E302F091E40280818F7D808344E08B
:1014700064E18AE793E00E945E0768EB7BE080E02E
:1014800090E00E946F048091CF029091D00200976B
:1014900011F00E94800F86E090E00E94EB0E28E69B
:1014A000FC0120832EE633E032832183138220E285
:1014B00030E0358324839093D0028093CF020E9442
:1014C000B7000E943A070E942A0787E00E94C403DF
:1014D0008C01909309028093080288E00E94C40363
:1014E00090930702809306020115110509F0EDC0E3
:1014F00020910C0230910D022130310509F0E5C038
:101500008AE793E00E94060760E080E00E9492096B
:101510008AE391E00E94A7098AE391E00E945909B9
:1015200061E080E00E94920983E491E00E94A709B3
:1015300083E491E00E94590987E00E94C4038C0172
:10154000909301028093000288E00E94C40390936C
:10155000FF018093FE01012B39F5809104029091E7
:101560000502019709F500911002109111020F5F19
:101570001F4F109311020093100261E08FE00E9450
:101580009209C8010E948309809110029091110272
:101590000E943B098091100290911102489721F41A
:1015A00010921102109210028091FE019091FF01A1
:1015B000009739F420910202309103022130310565
:1015C00069F02091000230910102309305022093CE
:1015D00004029093030280930202AECF10920502A0
:1015E0001092040210920302109202028AE793E022
:1015F0000E94060761E080E00E94920980E591E088
:101600000E94A70980E591E00E94590987E00E94A5
:10161000C4038C01909301028093000288E00E9431
:10162000C4039093FF018093FE01012B39F5809153
:10163000040290910502019709F5009102011091B1
:1016400003010F5F1F4F109303010093020161E03C
:101650008FE00E949209C8010E94830980910201D3
:10166000909103010E943B09809102019091030136
:10167000CC9721F410920301109202018091FE0197
:101680009091FF01009739F42091020230910302FA
:101690002130310569F02091000230910102309330
:1016A0000502209304029093030280930202AECFBE
:1016B0006091100280E090E00E940E0760910201AC
:1016C00081E090E00E940E0735C0009751F520910F
:1016D0000A0230910B022130310519F58AE793E0B7
:1016E0000E94060760E080E00E94920980E691E097
:1016F0000E94A70980E691E00E94590980E090E0ED
:101700000E94AD0E90E0909311028093100281E050
:1017100090E00E94AD0E90E090930301809302014F
:1017200009C010930D0200930C0290930B0280935A
:101730000A02CBCE0E943A070E942A0710920D029D
:1017400010920C0210920B0210920A0287E00E9483
:10175000C4038C01909309028093080288E00E94E0
:10176000C40390930702809306020115110509F046
:10177000F5C020910C0230910D022130310509F0A5
:10178000EDC08AE793E00E94060760E080E00E94D7
:1017900092098AE391E00E94A7098AE391E00E94FE
:1017A000590961E080E00E94920983E491E00E947F
:1017B000A70983E491E00E94590910920502109252
:1017C0000402109203021092020287E00E94C403F6
:1017D0008C01909301028093000288E00E94C40370
:1017E0009093FF018093FE01012B39F58091040253
:1017F00090910502019709F500910E0210910F02D8
:101800000F5F1F4F10930F0200930E0261E08FE0F5
:101810000E949209C8010E94830980910E02909152
:101820000F020E943B0980910E0290910F0248978F
:1018300021F410920F0210920E028091FE019091FD
:10184000FF01009739F42091020230910302213008
:10185000310569F0209100023091010230930502B8
:10186000209304029093030280930202AECF109261
:1018700005021092040210920302109202028AE7FB
:1018800093E00E94060761E080E00E94920980E5F3
:1018900091E00E94A70980E591E00E94590987E044
:1018A0000E94C4038C01909301028093000288E09F
:1018B0000E94C4039093FF018093FE01012B39F530
:1018C0008091040290910502019709F500910001B1
:1018D000109101010F5F1F4F109301010093000150
:1018E00061E08FE00E949209C8010E948309809103
:1018F0000001909101010E943B09809100019091AB
:101900000101CC9721F41092010110920001809105
:10191000FE019091FF01009739F42091020230916D
:1019200003022130310569F020910002309101025B
:1019300030930502209304029093030280930202E5
:10194000AECF60910E0282E090E00E940E0760919F
:10195000000183E090E00E940E0735C0009751F52A
:1019600020910A0230910B022130310519F58AE7E6
:1019700093E00E94060760E080E00E94920980E602
:1019800091E00E94A70980E691E00E94590982E057
:1019900090E00E94AD0E90E090930F0280930E02B3
:1019A00083E090E00E94AD0E90E09093010180935F
:1019B000000109C010930D0200930C0290930B02DA
:1019C00080930A02C3CE63E080E00E94920989E618
:1019D00091E00E94A70968EB7BE080E090E00E9424
:1019E0006F04CE0101960E94FD0760E080E00E9436
:1019F0009209498150E04053584F60E070E02AE07E
:101A00008AE793E00E94FB0060E084E00E94920974
:101A100084E791E00E94A70960E085E00E949209B6
:101A20004A8150E060E070E02AE08AE793E00E949B
:101A3000FB0060E087E00E94920984E791E00E9449
:101A4000A70960E088E00E9492094B8150E060E0C5
:101A500070E02AE08AE793E00E94FB0060E08AE001
:101A60000E9492098EE491E00E94A70960E08BE059
:101A70000E9492094C8150E060E070E02AE08AE721
:101A800093E00E94FB0060E08DE00E9492098DE8E7
:101A900091E00E94A70960E08EE00E9492094D81CA
:101AA00050E060E070E02AE08AE793E00E94FB00EB
:101AB00060E080E10E9492098DE891E00E94A70910
:101AC00060E081E10E9492094E8150E060E070E0A8
:101AD0002AE08AE793E00E94FB0066E771E08AE76C
:101AE00093E00E94570361E080E00E94920989E739
:101AF00091E00E94A70961E08CE00E949209809128
:101B00001002909111020E94830961E08EE00E9410
:101B100092098DE891E00E94A70961E08FE00E94A0
:101B2000920980910201909103010E94830962E071
:101B300080E00E94920985E891E00E94A70962E096
:101B40008CE00E94920980910E0290910F020E94F7
:101B5000830962E08EE00E9492098DE891E00E9484
:101B6000A70962E08FE00E949209809100019091A4
:101B700001010E948309CE0101960E94FD0749815F
:101B800050E04053584F60E070E02AE081ED92E071
:101B90000E94FB0066E771E081ED92E00E9457032E
:101BA00084E791E00E9459098A810E946C0984E7C8
:101BB00091E00E9459098B810E946C098EE491E0AA
:101BC0000E9459098C810E946C098DE891E00E9465
:101BD00059098D810E946C098DE891E00E94590994
:101BE0008E810E946C0989E791E00E9459098091D9
:101BF0001002909111020E943B098DE891E00E9431
:101C0000590980910201909103010E943B0985E8E6
:101C100091E00E94590980910E0290910F020E945A
:101C20003B098DE891E00E94590980910001909153
:101C300001010E943B0968EE73E080E090E00E94A1
:101C40006F048AE793E00E940607CE0101960E9486
:101C5000FD078C8190E020911002309111028217D3
:101C6000930759F42D8130E0409102015091030116
:101C70002417350711F461E014C020910E02309151
:101C80000F028217930749F48D8190E020910001A3
:101C9000309101018217930719F00E943E02A1CEF4
:101CA00060E08AE00E94ED03F8CFE1EDF2E01382FC
:101CB000128288EE93E0A0E0B0E084839583A6834F
:101CC000B7832EE031E03183208325EC30E0358787
:101CD000248724EC30E03787268720EC30E0318BF6
:101CE000208B21EC30E0338B228B22EC30E0358BE3
:101CF000248B26EC30E0378B268B118E128E138EC0
:101D0000148EEEE6F3E01382128284839583A68319
:101D1000B78380E291E091838083EAE7F3E0138266
:101D2000128282E391E0918380838CE084838FEF41
:101D300085838BE0868385E0878384E0808783E0EA
:101D4000818782E082871386148615861686178619
:101D500041E060E1CF010C945E07F999FECF92BD9E
:101D600081BDF89A992780B50895262FF999FECF5D
:101D70001FBA92BD81BD20BD0FB6F894FA9AF99AA8
:101D80000FBE01960895A1E21A2EAA1BBB1BFD01EE
:101D90000DC0AA1FBB1FEE1FFF1FA217B307E4074A
:101DA000F50720F0A21BB30BE40BF50B661F771FA2
:101DB000881F991F1A9469F7609570958095909582
:101DC0009B01AC01BD01CF010895EE0FFF1F0590EF
:101DD000F491E02D0994CF93DF938230910510F4B4
:101DE00082E090E0E0919403F091950320E030E0F0
:101DF000C0E0D0E0309711F1408151814817590778
:101E0000C0F04817590761F482819381209719F037
:101E10009B838A832BC0909395038093940326C061
:101E20002115310519F04217530718F49A01BE0124
:101E3000DF01EF010280F381E02DDCCF21153105B8
:101E400009F1281B390B2430310590F412968D913D
:101E50009C9113976115710521F0FB019383828397
:101E600004C09093950380939403FD01329644C07F
:101E7000FD01E20FF31F81939193225031092D93BD
:101E80003C933AC02091920330919303232B41F469
:101E90002091060130910701309393032093920320
:101EA00020910401309105012115310541F42DB730
:101EB0003EB74091080150910901241B350BE09178
:101EC0009203F0919303E217F307A0F42E1B3F0B4C
:101ED0002817390778F0AC014E5F5F4F241735079C
:101EE00048F04E0F5F1F50939303409392038193EA
:101EF000919302C0E0E0F0E0CF01DF91CF9108952F
:101F00000F931F93CF93DF93009709F48CC0FC01CC
:101F10003297138212820091940310919503011558
:101F2000110581F420813181820F931F209192034A
:101F3000309193032817390779F5F0939303E093D1
:101F4000920371C0D80140E050E0AE17BF0750F4D3
:101F500012962D913C911397AD012115310509F190
:101F6000D901F3CF9D01DA0133832283608171812E
:101F7000860F971F8217930769F4EC012881398136
:101F8000260F371F2E5F3F4F318320838A819B812D
:101F900093838283452B29F4F0939503E093940374
:101FA00042C01396FC93EE931297ED01499159911B
:101FB0009E01240F351FE217F30771F48081918190
:101FC000840F951F029611969C938E938281938124
:101FD00013969C938E931297E0E0F0E0D80112964E
:101FE0008D919C911397009719F0F8018C01F6CF11
:101FF0008D919C9198012E5F3F4F820F931F2091EE
:102000009203309193032817390769F4309729F424
:10201000109295031092940302C0138212821093BF
:10202000930300939203DF91CF911F910F91089535
:0E20300081E090E0F8940C941D10F894FFCF1E
:10203E000100010000009603800000000000D501A1
:10204E008C006D011C029E017C01900100000000BD
:10205E002403F4025403C802EC02D802C9020000A1
:10206E000000FD068C005403530353656C656374C6
:10207E00203100456E74657220486F75723A2000EB
:10208E00456E746572206D696E757465733A2000C5
:10209E0053656C6563742032005365747570204F00
:1020AE00766572002F000D0A00537461727420540D
:1020BE00696D653A00456E642054696D653A004558
:1020CE006E746572204E65772044617465202620FB
:1020DE0054696D6500507265737320427574746F28
:1020EE006E2031004765742050726520446174651E
:1020FE0020262054696D65005072657373204275F9
:10210E0074746F6E203200456E746572204E657762
:10211E0020446174652654696D65004765742050CE
:0E212E00726520446174652654696D65000079
:107E0000112484B714BE81FFF0D085E080938100F7
:107E100082E08093C00088E18093C10086E0809377
:107E2000C20080E18093C4008EE0C9D0259A86E02C
:107E300020E33CEF91E0309385002093840096BBD3
:107E4000B09BFECF1D9AA8958150A9F7CC24DD24C4
:107E500088248394B5E0AB2EA1E19A2EF3E0BF2EE7
:107E6000A2D0813461F49FD0082FAFD0023811F036
:107E7000013811F484E001C083E08DD089C08234E0
:107E800011F484E103C0853419F485E0A6D080C0E4
:107E9000853579F488D0E82EFF2485D0082F10E0AE
:107EA000102F00270E291F29000F111F8ED06801E7
:107EB0006FC0863521F484E090D080E0DECF843638
:107EC00009F040C070D06FD0082F6DD080E0C81688
:107ED00080E7D80618F4F601B7BEE895C0E0D1E017
:107EE00062D089930C17E1F7F0E0CF16F0E7DF06D8
:107EF00018F0F601B7BEE89568D007B600FCFDCFD4
:107F0000A601A0E0B1E02C9130E011968C91119780
:107F100090E0982F8827822B932B1296FA010C0160
:107F200087BEE89511244E5F5F4FF1E0A038BF0790
:107F300051F7F601A7BEE89507B600FCFDCF97BE46
:107F4000E89526C08437B1F42ED02DD0F82E2BD052
:107F50003CD0F601EF2C8F010F5F1F4F84911BD097
:107F6000EA94F801C1F70894C11CD11CFA94CF0C13
:107F7000D11C0EC0853739F428D08EE10CD085E9AC
:107F80000AD08FE07ACF813511F488E018D01DD067
:107F900080E101D065CF982F8091C00085FFFCCF94
:107FA0009093C60008958091C00087FFFCCF809118
:107FB000C00084FD01C0A8958091C6000895E0E648
:107FC000F0E098E1908380830895EDDF803219F02E
:107FD00088E0F5DFFFCF84E1DECF1F93182FE3DFCA
:107FE0001150E9F7F2DF1F91089580E0E8DFEE27F6
:047FF000FF270994CA
:027FFE00040479
:0400000300007E007B
:00000001FF
